{
  "_format": "hh-sol-artifact-1",
  "contractName": "HerbTrace",
  "sourceName": "src/contracts/HerbTrace.sol",
  "abi": [
    {
      "inputs": [],
      "name": "InvalidInitialization",
      "type": "error"
    },
    {
      "inputs": [],
      "name": "NotInitializing",
      "type": "error"
    },
    {
      "anonymous": false,
      "inputs": [
        {
          "indexed": true,
          "internalType": "string",
          "name": "batchId",
          "type": "string"
        },
        {
          "indexed": false,
          "internalType": "string",
          "name": "herbName",
          "type": "string"
        },
        {
          "indexed": true,
          "internalType": "address",
          "name": "manufacturer",
          "type": "address"
        }
      ],
      "name": "BatchRegistered",
      "type": "event"
    },
    {
      "anonymous": false,
      "inputs": [
        {
          "indexed": true,
          "internalType": "string",
          "name": "batchId",
          "type": "string"
        },
        {
          "indexed": true,
          "internalType": "address",
          "name": "manufacturer",
          "type": "address"
        }
      ],
      "name": "BatchUpdated",
      "type": "event"
    },
    {
      "anonymous": false,
      "inputs": [
        {
          "indexed": false,
          "internalType": "uint64",
          "name": "version",
          "type": "uint64"
        }
      ],
      "name": "Initialized",
      "type": "event"
    },
    {
      "inputs": [
        {
          "internalType": "uint256",
          "name": "",
          "type": "uint256"
        }
      ],
      "name": "batchIds",
      "outputs": [
        {
          "internalType": "string",
          "name": "",
          "type": "string"
        }
      ],
      "stateMutability": "view",
      "type": "function"
    },
    {
      "inputs": [
        {
          "internalType": "string",
          "name": "",
          "type": "string"
        }
      ],
      "name": "batches",
      "outputs": [
        {
          "internalType": "string",
          "name": "batchId",
          "type": "string"
        },
        {
          "internalType": "string",
          "name": "herbName",
          "type": "string"
        },
        {
          "internalType": "string",
          "name": "manufacturerName",
          "type": "string"
        },
        {
          "internalType": "string",
          "name": "harvestDate",
          "type": "string"
        },
        {
          "internalType": "string",
          "name": "manufactureDate",
          "type": "string"
        },
        {
          "internalType": "string",
          "name": "expiryDate",
          "type": "string"
        },
        {
          "internalType": "string",
          "name": "origin",
          "type": "string"
        },
        {
          "internalType": "string",
          "name": "details",
          "type": "string"
        },
        {
          "internalType": "uint256",
          "name": "timestamp",
          "type": "uint256"
        },
        {
          "internalType": "address",
          "name": "manufacturer",
          "type": "address"
        },
        {
          "internalType": "bool",
          "name": "exists",
          "type": "bool"
        }
      ],
      "stateMutability": "view",
      "type": "function"
    },
    {
      "inputs": [
        {
          "internalType": "string",
          "name": "_batchId",
          "type": "string"
        }
      ],
      "name": "getBatch",
      "outputs": [
        {
          "internalType": "string",
          "name": "herbName",
          "type": "string"
        },
        {
          "internalType": "string",
          "name": "manufacturerName",
          "type": "string"
        },
        {
          "internalType": "string",
          "name": "harvestDate",
          "type": "string"
        },
        {
          "internalType": "string",
          "name": "manufactureDate",
          "type": "string"
        },
        {
          "internalType": "string",
          "name": "expiryDate",
          "type": "string"
        },
        {
          "internalType": "string",
          "name": "origin",
          "type": "string"
        },
        {
          "internalType": "string",
          "name": "details",
          "type": "string"
        },
        {
          "internalType": "string[]",
          "name": "ipfsCIDs",
          "type": "string[]"
        },
        {
          "internalType": "uint256",
          "name": "timestamp",
          "type": "uint256"
        },
        {
          "internalType": "address",
          "name": "manufacturer",
          "type": "address"
        }
      ],
      "stateMutability": "view",
      "type": "function"
    },
    {
      "inputs": [],
      "name": "getBatchCount",
      "outputs": [
        {
          "internalType": "uint256",
          "name": "",
          "type": "uint256"
        }
      ],
      "stateMutability": "view",
      "type": "function"
    },
    {
      "inputs": [],
      "name": "initialize",
      "outputs": [],
      "stateMutability": "nonpayable",
      "type": "function"
    },
    {
      "inputs": [
        {
          "internalType": "string",
          "name": "_batchId",
          "type": "string"
        },
        {
          "internalType": "string",
          "name": "_herbName",
          "type": "string"
        },
        {
          "internalType": "string",
          "name": "_manufacturerName",
          "type": "string"
        },
        {
          "internalType": "string",
          "name": "_harvestDate",
          "type": "string"
        },
        {
          "internalType": "string",
          "name": "_manufactureDate",
          "type": "string"
        },
        {
          "internalType": "string",
          "name": "_expiryDate",
          "type": "string"
        },
        {
          "internalType": "string",
          "name": "_origin",
          "type": "string"
        },
        {
          "internalType": "string",
          "name": "_details",
          "type": "string"
        },
        {
          "internalType": "string[]",
          "name": "_ipfsCIDs",
          "type": "string[]"
        }
      ],
      "name": "registerBatch",
      "outputs": [],
      "stateMutability": "nonpayable",
      "type": "function"
    },
    {
      "inputs": [
        {
          "internalType": "string",
          "name": "_batchId",
          "type": "string"
        },
        {
          "internalType": "string[]",
          "name": "_newIpfsCIDs",
          "type": "string[]"
        }
      ],
      "name": "updateBatch",
      "outputs": [],
      "stateMutability": "nonpayable",
      "type": "function"
    }
  ],
  "bytecode": "0x608060405234801561001057600080fd5b5061224a806100206000396000f3fe608060405234801561001057600080fd5b506004361061007d5760003560e01c8063a8fabfa51161005b578063a8fabfa5146100e2578063b3d346b914610100578063f9ca427414610130578063fe3cfedf146101695761007d565b80637ef1446a146100825780638129fc1c146100bc578063a1cc7b30146100c6575b600080fd5b61009c6004803603810190610097919061157b565b610185565b6040516100b39b9a999897969594939291906116b8565b60405180910390f35b6100c4610662565b005b6100e060048036038101906100db9190611881565b6107e7565b005b6100ea6109bd565b6040516100f791906118f9565b60405180910390f35b61011a60048036038101906101159190611940565b6109ca565b604051610127919061196d565b60405180910390f35b61014a6004803603810190610145919061157b565b610a76565b6040516101609a99989796959493929190611a9b565b60405180910390f35b610183600480360381019061017e9190611b6f565b611027565b005b6000818051602081018201805184825260208301602085012081835280955050505050506000915090508060000180546101be90611d64565b80601f01602080910402602001604051908101604052809291908181526020018280546101ea90611d64565b80156102375780601f1061020c57610100808354040283529160200191610237565b820191906000526020600020905b81548152906001019060200180831161021a57829003601f168201915b50505050509080600101805461024c90611d64565b80601f016020809104026020016040519081016040528092919081815260200182805461027890611d64565b80156102c55780601f1061029a576101008083540402835291602001916102c5565b820191906000526020600020905b8154815290600101906020018083116102a857829003601f168201915b5050505050908060020180546102da90611d64565b80601f016020809104026020016040519081016040528092919081815260200182805461030690611d64565b80156103535780601f1061032857610100808354040283529160200191610353565b820191906000526020600020905b81548152906001019060200180831161033657829003601f168201915b50505050509080600301805461036890611d64565b80601f016020809104026020016040519081016040528092919081815260200182805461039490611d64565b80156103e15780601f106103b6576101008083540402835291602001916103e1565b820191906000526020600020905b8154815290600101906020018083116103c457829003601f168201915b5050505050908060040180546103f690611d64565b80601f016020809104026020016040519081016040528092919081815260200182805461042290611d64565b801561046f5780601f106104445761010080835404028352916020019161046f565b820191906000526020600020905b81548152906001019060200180831161045257829003601f168201915b50505050509080600501805461048490611d64565b80601f01602080910402602001604051908101604052809291908181526020018280546104b090611d64565b80156104fd5780601f106104d2576101008083540402835291602001916104fd565b820191906000526020600020905b8154815290600101906020018083116104e057829003601f168201915b50505050509080600601805461051290611d64565b80601f016020809104026020016040519081016040528092919081815260200182805461053e90611d64565b801561058b5780601f106105605761010080835404028352916020019161058b565b820191906000526020600020905b81548152906001019060200180831161056e57829003601f168201915b5050505050908060070180546105a090611d64565b80601f01602080910402602001604051908101604052809291908181526020018280546105cc90611d64565b80156106195780601f106105ee57610100808354040283529160200191610619565b820191906000526020600020905b8154815290600101906020018083116105fc57829003601f168201915b50505050509080600901549080600a0160009054906101000a900473ffffffffffffffffffffffffffffffffffffffff169080600a0160149054906101000a900460ff1690508b565b600061066c611308565b905060008160000160089054906101000a900460ff1615905060008260000160009054906101000a900467ffffffffffffffff1690506000808267ffffffffffffffff161480156106ba5750825b9050600060018367ffffffffffffffff161480156106ef575060003073ffffffffffffffffffffffffffffffffffffffff163b145b9050811580156106fd575080155b15610734576040517ff92ee8a900000000000000000000000000000000000000000000000000000000815260040160405180910390fd5b60018560000160006101000a81548167ffffffffffffffff021916908367ffffffffffffffff16021790555083156107845760018560000160086101000a81548160ff0219169083151502179055505b83156107e05760008560000160086101000a81548160ff0219169083151502179055507fc7f505b2f371ae2175ee4913f4499e1f2633a7b5936321eed1cdaeb6115181d260016040516107d79190611dee565b60405180910390a15b5050505050565b6000826040516107f79190611e45565b9081526020016040518091039020600a0160149054906101000a900460ff16610855576040517f08c379a000000000000000000000000000000000000000000000000000000000815260040161084c90611ea8565b60405180910390fd5b3373ffffffffffffffffffffffffffffffffffffffff1660008360405161087c9190611e45565b9081526020016040518091039020600a0160009054906101000a900473ffffffffffffffffffffffffffffffffffffffff1673ffffffffffffffffffffffffffffffffffffffff1614610904576040517f08c379a00000000000000000000000000000000000000000000000000000000081526004016108fb90611f14565b60405180910390fd5b806000836040516109159190611e45565b90815260200160405180910390206008019080519060200190610939929190611347565b504260008360405161094b9190611e45565b9081526020016040518091039020600901819055503373ffffffffffffffffffffffffffffffffffffffff16826040516109859190611e45565b60405180910390207f1da1181a0b1114a9fa4cd6a0a1db7c36b311634bbdb640322290c3cfc52139d560405160405180910390a35050565b6000600180549050905090565b600181815481106109da57600080fd5b9060005260206000200160009150905080546109f590611d64565b80601f0160208091040260200160405190810160405280929190818152602001828054610a2190611d64565b8015610a6e5780601f10610a4357610100808354040283529160200191610a6e565b820191906000526020600020905b815481529060010190602001808311610a5157829003601f168201915b505050505081565b60608060608060608060608060008060008b604051610a959190611e45565b9081526020016040518091039020600a0160149054906101000a900460ff16610af3576040517f08c379a0000000000000000000000000000000000000000000000000000000008152600401610aea90611ea8565b60405180910390fd5b6000808c604051610b049190611e45565b908152602001604051809103902090508060010181600201826003018360040184600501856006018660070187600801886009015489600a0160009054906101000a900473ffffffffffffffffffffffffffffffffffffffff16898054610b6a90611d64565b80601f0160208091040260200160405190810160405280929190818152602001828054610b9690611d64565b8015610be35780601f10610bb857610100808354040283529160200191610be3565b820191906000526020600020905b815481529060010190602001808311610bc657829003601f168201915b50505050509950888054610bf690611d64565b80601f0160208091040260200160405190810160405280929190818152602001828054610c2290611d64565b8015610c6f5780601f10610c4457610100808354040283529160200191610c6f565b820191906000526020600020905b815481529060010190602001808311610c5257829003601f168201915b50505050509850878054610c8290611d64565b80601f0160208091040260200160405190810160405280929190818152602001828054610cae90611d64565b8015610cfb5780601f10610cd057610100808354040283529160200191610cfb565b820191906000526020600020905b815481529060010190602001808311610cde57829003601f168201915b50505050509750868054610d0e90611d64565b80601f0160208091040260200160405190810160405280929190818152602001828054610d3a90611d64565b8015610d875780601f10610d5c57610100808354040283529160200191610d87565b820191906000526020600020905b815481529060010190602001808311610d6a57829003601f168201915b50505050509650858054610d9a90611d64565b80601f0160208091040260200160405190810160405280929190818152602001828054610dc690611d64565b8015610e135780601f10610de857610100808354040283529160200191610e13565b820191906000526020600020905b815481529060010190602001808311610df657829003601f168201915b50505050509550848054610e2690611d64565b80601f0160208091040260200160405190810160405280929190818152602001828054610e5290611d64565b8015610e9f5780601f10610e7457610100808354040283529160200191610e9f565b820191906000526020600020905b815481529060010190602001808311610e8257829003601f168201915b50505050509450838054610eb290611d64565b80601f0160208091040260200160405190810160405280929190818152602001828054610ede90611d64565b8015610f2b5780601f10610f0057610100808354040283529160200191610f2b565b820191906000526020600020905b815481529060010190602001808311610f0e57829003601f168201915b5050505050935082805480602002602001604051908101604052809291908181526020016000905b82821015610fff578382906000526020600020018054610f7290611d64565b80601f0160208091040260200160405190810160405280929190818152602001828054610f9e90611d64565b8015610feb5780601f10610fc057610100808354040283529160200191610feb565b820191906000526020600020905b815481529060010190602001808311610fce57829003601f168201915b505050505081526020019060010190610f53565b5050505092509a509a509a509a509a509a509a509a509a509a50509193959799509193959799565b6000896040516110379190611e45565b9081526020016040518091039020600a0160149054906101000a900460ff1615611096576040517f08c379a000000000000000000000000000000000000000000000000000000000815260040161108d90611f80565b60405180910390fd5b6040518061018001604052808a81526020018981526020018881526020018781526020018681526020018581526020018481526020018381526020018281526020014281526020013373ffffffffffffffffffffffffffffffffffffffff1681526020016001151581525060008a6040516111119190611e45565b908152602001604051809103902060008201518160000190816111349190612142565b50602082015181600101908161114a9190612142565b5060408201518160020190816111609190612142565b5060608201518160030190816111769190612142565b50608082015181600401908161118c9190612142565b5060a08201518160050190816111a29190612142565b5060c08201518160060190816111b89190612142565b5060e08201518160070190816111ce9190612142565b506101008201518160080190805190602001906111ec929190611347565b50610120820151816009015561014082015181600a0160006101000a81548173ffffffffffffffffffffffffffffffffffffffff021916908373ffffffffffffffffffffffffffffffffffffffff16021790555061016082015181600a0160146101000a81548160ff0219169083151502179055509050506001899080600181540180825580915050600190039060005260206000200160009091909190915090816112989190612142565b503373ffffffffffffffffffffffffffffffffffffffff16896040516112be9190611e45565b60405180910390207fe187ef62f610f162883fdada619504c09c0981be2dc09fbc1029e7a09db45a938a6040516112f5919061196d565b60405180910390a3505050505050505050565b60008061131361131c565b90508091505090565b60007ff0c57e16840df040f15088dc2f81fe391c3923bec73e23a9662efc9c229c6a0060001b905090565b82805482825590600052602060002090810192821561138f579160200282015b8281111561138e57825182908161137e9190612142565b5091602001919060010190611367565b5b50905061139c91906113a0565b5090565b5b808211156113c057600081816113b791906113c4565b506001016113a1565b5090565b5080546113d090611d64565b6000825580601f106113e25750611401565b601f0160209004906000526020600020908101906114009190611404565b5b50565b5b8082111561141d576000816000905550600101611405565b5090565b6000604051905090565b600080fd5b600080fd5b600080fd5b600080fd5b6000601f19601f8301169050919050565b7f4e487b7100000000000000000000000000000000000000000000000000000000600052604160045260246000fd5b6114888261143f565b810181811067ffffffffffffffff821117156114a7576114a6611450565b5b80604052505050565b60006114ba611421565b90506114c6828261147f565b919050565b600067ffffffffffffffff8211156114e6576114e5611450565b5b6114ef8261143f565b9050602081019050919050565b82818337600083830152505050565b600061151e611519846114cb565b6114b0565b90508281526020810184848401111561153a5761153961143a565b5b6115458482856114fc565b509392505050565b600082601f83011261156257611561611435565b5b813561157284826020860161150b565b91505092915050565b6000602082840312156115915761159061142b565b5b600082013567ffffffffffffffff8111156115af576115ae611430565b5b6115bb8482850161154d565b91505092915050565b600081519050919050565b600082825260208201905092915050565b60005b838110156115fe5780820151818401526020810190506115e3565b60008484015250505050565b6000611615826115c4565b61161f81856115cf565b935061162f8185602086016115e0565b6116388161143f565b840191505092915050565b6000819050919050565b61165681611643565b82525050565b600073ffffffffffffffffffffffffffffffffffffffff82169050919050565b60006116878261165c565b9050919050565b6116978161167c565b82525050565b60008115159050919050565b6116b28161169d565b82525050565b60006101608201905081810360008301526116d3818e61160a565b905081810360208301526116e7818d61160a565b905081810360408301526116fb818c61160a565b9050818103606083015261170f818b61160a565b90508181036080830152611723818a61160a565b905081810360a0830152611737818961160a565b905081810360c083015261174b818861160a565b905081810360e083015261175f818761160a565b905061176f61010083018661164d565b61177d61012083018561168e565b61178b6101408301846116a9565b9c9b505050505050505050505050565b600067ffffffffffffffff8211156117b6576117b5611450565b5b602082029050602081019050919050565b600080fd5b60006117df6117da8461179b565b6114b0565b90508083825260208201905060208402830185811115611802576118016117c7565b5b835b8181101561184957803567ffffffffffffffff81111561182757611826611435565b5b808601611834898261154d565b85526020850194505050602081019050611804565b5050509392505050565b600082601f83011261186857611867611435565b5b81356118788482602086016117cc565b91505092915050565b600080604083850312156118985761189761142b565b5b600083013567ffffffffffffffff8111156118b6576118b5611430565b5b6118c28582860161154d565b925050602083013567ffffffffffffffff8111156118e3576118e2611430565b5b6118ef85828601611853565b9150509250929050565b600060208201905061190e600083018461164d565b92915050565b61191d81611643565b811461192857600080fd5b50565b60008135905061193a81611914565b92915050565b6000602082840312156119565761195561142b565b5b60006119648482850161192b565b91505092915050565b60006020820190508181036000830152611987818461160a565b905092915050565b600081519050919050565b600082825260208201905092915050565b6000819050602082019050919050565b600082825260208201905092915050565b60006119d7826115c4565b6119e181856119bb565b93506119f18185602086016115e0565b6119fa8161143f565b840191505092915050565b6000611a1183836119cc565b905092915050565b6000602082019050919050565b6000611a318261198f565b611a3b818561199a565b935083602082028501611a4d856119ab565b8060005b85811015611a895784840389528151611a6a8582611a05565b9450611a7583611a19565b925060208a01995050600181019050611a51565b50829750879550505050505092915050565b6000610140820190508181036000830152611ab6818d61160a565b90508181036020830152611aca818c61160a565b90508181036040830152611ade818b61160a565b90508181036060830152611af2818a61160a565b90508181036080830152611b06818961160a565b905081810360a0830152611b1a818861160a565b905081810360c0830152611b2e818761160a565b905081810360e0830152611b428186611a26565b9050611b5261010083018561164d565b611b6061012083018461168e565b9b9a5050505050505050505050565b60008060008060008060008060006101208a8c031215611b9257611b9161142b565b5b60008a013567ffffffffffffffff811115611bb057611baf611430565b5b611bbc8c828d0161154d565b99505060208a013567ffffffffffffffff811115611bdd57611bdc611430565b5b611be98c828d0161154d565b98505060408a013567ffffffffffffffff811115611c0a57611c09611430565b5b611c168c828d0161154d565b97505060608a013567ffffffffffffffff811115611c3757611c36611430565b5b611c438c828d0161154d565b96505060808a013567ffffffffffffffff811115611c6457611c63611430565b5b611c708c828d0161154d565b95505060a08a013567ffffffffffffffff811115611c9157611c90611430565b5b611c9d8c828d0161154d565b94505060c08a013567ffffffffffffffff811115611cbe57611cbd611430565b5b611cca8c828d0161154d565b93505060e08a013567ffffffffffffffff811115611ceb57611cea611430565b5b611cf78c828d0161154d565b9250506101008a013567ffffffffffffffff811115611d1957611d18611430565b5b611d258c828d01611853565b9150509295985092959850929598565b7f4e487b7100000000000000000000000000000000000000000000000000000000600052602260045260246000fd5b60006002820490506001821680611d7c57607f821691505b602082108103611d8f57611d8e611d35565b5b50919050565b6000819050919050565b600067ffffffffffffffff82169050919050565b6000819050919050565b6000611dd8611dd3611dce84611d95565b611db3565b611d9f565b9050919050565b611de881611dbd565b82525050565b6000602082019050611e036000830184611ddf565b92915050565b600081905092915050565b6000611e1f826115c4565b611e298185611e09565b9350611e398185602086016115e0565b80840191505092915050565b6000611e518284611e14565b915081905092915050565b7f4261746368206e6f7420666f756e640000000000000000000000000000000000600082015250565b6000611e92600f836115cf565b9150611e9d82611e5c565b602082019050919050565b60006020820190508181036000830152611ec181611e85565b9050919050565b7f4f6e6c79206d616e7566616374757265722063616e2075706461746500000000600082015250565b6000611efe601c836115cf565b9150611f0982611ec8565b602082019050919050565b60006020820190508181036000830152611f2d81611ef1565b9050919050565b7f426174636820616c726561647920726567697374657265640000000000000000600082015250565b6000611f6a6018836115cf565b9150611f7582611f34565b602082019050919050565b60006020820190508181036000830152611f9981611f5d565b9050919050565b60008190508160005260206000209050919050565b60006020601f8301049050919050565b600082821b905092915050565b6000600883026120027fffffffffffffffffffffffffffffffffffffffffffffffffffffffffffffffff82611fc5565b61200c8683611fc5565b95508019841693508086168417925050509392505050565b600061203f61203a61203584611643565b611db3565b611643565b9050919050565b6000819050919050565b61205983612024565b61206d61206582612046565b848454611fd2565b825550505050565b600090565b612082612075565b61208d818484612050565b505050565b5b818110156120b1576120a660008261207a565b600181019050612093565b5050565b601f8211156120f6576120c781611fa0565b6120d084611fb5565b810160208510156120df578190505b6120f36120eb85611fb5565b830182612092565b50505b505050565b600082821c905092915050565b6000612119600019846008026120fb565b1980831691505092915050565b60006121328383612108565b9150826002028217905092915050565b61214b826115c4565b67ffffffffffffffff81111561216457612163611450565b5b61216e8254611d64565b6121798282856120b5565b600060209050601f8311600181146121ac576000841561219a578287015190505b6121a48582612126565b86555061220c565b601f1984166121ba86611fa0565b60005b828110156121e2578489015182556001820191506020850194506020810190506121bd565b868310156121ff57848901516121fb601f891682612108565b8355505b6001600288020188555050505b50505050505056fea2646970667358221220862b9dc25c2e0a0477e6d27a582000fb01fc8abcacf98cb2b574826f9c2ee79364736f6c63430008140033",
  "linkReferences": {},
  "deployedLinkReferences": {}
}