{
  "_format": "hh-sol-artifact-1",
  "contractName": "HerbTrace",
  "sourceName": "src/contracts/HerbTrace.sol",
  "abi": [
    {
      "anonymous": false,
      "inputs": [
        {
          "indexed": true,
          "internalType": "string",
          "name": "batchId",
          "type": "string"
        },
        {
          "indexed": false,
          "internalType": "string",
          "name": "herbName",
          "type": "string"
        },
        {
          "indexed": true,
          "internalType": "address",
          "name": "manufacturer",
          "type": "address"
        }
      ],
      "name": "BatchRegistered",
      "type": "event"
    },
    {
      "anonymous": false,
      "inputs": [
        {
          "indexed": true,
          "internalType": "string",
          "name": "batchId",
          "type": "string"
        },
        {
          "indexed": true,
          "internalType": "address",
          "name": "manufacturer",
          "type": "address"
        }
      ],
      "name": "BatchUpdated",
      "type": "event"
    },
    {
      "inputs": [
        {
          "internalType": "uint256",
          "name": "",
          "type": "uint256"
        }
      ],
      "name": "batchIds",
      "outputs": [
        {
          "internalType": "string",
          "name": "",
          "type": "string"
        }
      ],
      "stateMutability": "view",
      "type": "function"
    },
    {
      "inputs": [
        {
          "internalType": "string",
          "name": "",
          "type": "string"
        }
      ],
      "name": "batches",
      "outputs": [
        {
          "internalType": "string",
          "name": "batchId",
          "type": "string"
        },
        {
          "internalType": "string",
          "name": "herbName",
          "type": "string"
        },
        {
          "internalType": "string",
          "name": "manufacturerName",
          "type": "string"
        },
        {
          "internalType": "string",
          "name": "harvestDate",
          "type": "string"
        },
        {
          "internalType": "string",
          "name": "manufactureDate",
          "type": "string"
        },
        {
          "internalType": "string",
          "name": "expiryDate",
          "type": "string"
        },
        {
          "internalType": "string",
          "name": "origin",
          "type": "string"
        },
        {
          "internalType": "string",
          "name": "details",
          "type": "string"
        },
        {
          "internalType": "uint256",
          "name": "timestamp",
          "type": "uint256"
        },
        {
          "internalType": "address",
          "name": "manufacturer",
          "type": "address"
        },
        {
          "internalType": "bool",
          "name": "exists",
          "type": "bool"
        }
      ],
      "stateMutability": "view",
      "type": "function"
    },
    {
      "inputs": [
        {
          "internalType": "string",
          "name": "_batchId",
          "type": "string"
        }
      ],
      "name": "getBatch",
      "outputs": [
        {
          "internalType": "string",
          "name": "herbName",
          "type": "string"
        },
        {
          "internalType": "string",
          "name": "manufacturerName",
          "type": "string"
        },
        {
          "internalType": "string",
          "name": "harvestDate",
          "type": "string"
        },
        {
          "internalType": "string",
          "name": "manufactureDate",
          "type": "string"
        },
        {
          "internalType": "string",
          "name": "expiryDate",
          "type": "string"
        },
        {
          "internalType": "string",
          "name": "origin",
          "type": "string"
        },
        {
          "internalType": "string",
          "name": "details",
          "type": "string"
        },
        {
          "internalType": "string[]",
          "name": "ipfsCIDs",
          "type": "string[]"
        },
        {
          "internalType": "uint256",
          "name": "timestamp",
          "type": "uint256"
        },
        {
          "internalType": "address",
          "name": "manufacturer",
          "type": "address"
        }
      ],
      "stateMutability": "view",
      "type": "function"
    },
    {
      "inputs": [],
      "name": "getBatchCount",
      "outputs": [
        {
          "internalType": "uint256",
          "name": "",
          "type": "uint256"
        }
      ],
      "stateMutability": "view",
      "type": "function"
    },
    {
      "inputs": [
        {
          "internalType": "string",
          "name": "_batchId",
          "type": "string"
        },
        {
          "internalType": "string",
          "name": "_herbName",
          "type": "string"
        },
        {
          "internalType": "string",
          "name": "_manufacturerName",
          "type": "string"
        },
        {
          "internalType": "string",
          "name": "_harvestDate",
          "type": "string"
        },
        {
          "internalType": "string",
          "name": "_manufactureDate",
          "type": "string"
        },
        {
          "internalType": "string",
          "name": "_expiryDate",
          "type": "string"
        },
        {
          "internalType": "string",
          "name": "_origin",
          "type": "string"
        },
        {
          "internalType": "string",
          "name": "_details",
          "type": "string"
        },
        {
          "internalType": "string[]",
          "name": "_ipfsCIDs",
          "type": "string[]"
        }
      ],
      "name": "registerBatch",
      "outputs": [],
      "stateMutability": "nonpayable",
      "type": "function"
    },
    {
      "inputs": [
        {
          "internalType": "string",
          "name": "_batchId",
          "type": "string"
        },
        {
          "internalType": "string[]",
          "name": "_newIpfsCIDs",
          "type": "string[]"
        }
      ],
      "name": "updateBatch",
      "outputs": [],
      "stateMutability": "nonpayable",
      "type": "function"
    }
  ],
  "bytecode": "0x608060405234801561001057600080fd5b50611ff7806100206000396000f3fe608060405234801561001057600080fd5b50600436106100625760003560e01c80637ef1446a14610067578063a1cc7b30146100a1578063a8fabfa5146100bd578063b3d346b9146100db578063f9ca42741461010b578063fe3cfedf14610144575b600080fd5b610081600480360381019061007c9190611392565b610160565b6040516100989b9a999897969594939291906114cf565b60405180910390f35b6100bb60048036038101906100b69190611698565b61063d565b005b6100c5610813565b6040516100d29190611710565b60405180910390f35b6100f560048036038101906100f09190611757565b610820565b6040516101029190611784565b60405180910390f35b61012560048036038101906101209190611392565b6108cc565b60405161013b9a999897969594939291906118b2565b60405180910390f35b61015e60048036038101906101599190611986565b610e7d565b005b60008180516020810182018051848252602083016020850120818352809550505050505060009150905080600001805461019990611b7b565b80601f01602080910402602001604051908101604052809291908181526020018280546101c590611b7b565b80156102125780601f106101e757610100808354040283529160200191610212565b820191906000526020600020905b8154815290600101906020018083116101f557829003601f168201915b50505050509080600101805461022790611b7b565b80601f016020809104026020016040519081016040528092919081815260200182805461025390611b7b565b80156102a05780601f10610275576101008083540402835291602001916102a0565b820191906000526020600020905b81548152906001019060200180831161028357829003601f168201915b5050505050908060020180546102b590611b7b565b80601f01602080910402602001604051908101604052809291908181526020018280546102e190611b7b565b801561032e5780601f106103035761010080835404028352916020019161032e565b820191906000526020600020905b81548152906001019060200180831161031157829003601f168201915b50505050509080600301805461034390611b7b565b80601f016020809104026020016040519081016040528092919081815260200182805461036f90611b7b565b80156103bc5780601f10610391576101008083540402835291602001916103bc565b820191906000526020600020905b81548152906001019060200180831161039f57829003601f168201915b5050505050908060040180546103d190611b7b565b80601f01602080910402602001604051908101604052809291908181526020018280546103fd90611b7b565b801561044a5780601f1061041f5761010080835404028352916020019161044a565b820191906000526020600020905b81548152906001019060200180831161042d57829003601f168201915b50505050509080600501805461045f90611b7b565b80601f016020809104026020016040519081016040528092919081815260200182805461048b90611b7b565b80156104d85780601f106104ad576101008083540402835291602001916104d8565b820191906000526020600020905b8154815290600101906020018083116104bb57829003601f168201915b5050505050908060060180546104ed90611b7b565b80601f016020809104026020016040519081016040528092919081815260200182805461051990611b7b565b80156105665780601f1061053b57610100808354040283529160200191610566565b820191906000526020600020905b81548152906001019060200180831161054957829003601f168201915b50505050509080600701805461057b90611b7b565b80601f01602080910402602001604051908101604052809291908181526020018280546105a790611b7b565b80156105f45780601f106105c9576101008083540402835291602001916105f4565b820191906000526020600020905b8154815290600101906020018083116105d757829003601f168201915b50505050509080600901549080600a0160009054906101000a900473ffffffffffffffffffffffffffffffffffffffff169080600a0160149054906101000a900460ff1690508b565b60008260405161064d9190611be8565b9081526020016040518091039020600a0160149054906101000a900460ff166106ab576040517f08c379a00000000000000000000000000000000000000000000000000000000081526004016106a290611c4b565b60405180910390fd5b3373ffffffffffffffffffffffffffffffffffffffff166000836040516106d29190611be8565b9081526020016040518091039020600a0160009054906101000a900473ffffffffffffffffffffffffffffffffffffffff1673ffffffffffffffffffffffffffffffffffffffff161461075a576040517f08c379a000000000000000000000000000000000000000000000000000000000815260040161075190611cb7565b60405180910390fd5b8060008360405161076b9190611be8565b9081526020016040518091039020600801908051906020019061078f92919061115e565b50426000836040516107a19190611be8565b9081526020016040518091039020600901819055503373ffffffffffffffffffffffffffffffffffffffff16826040516107db9190611be8565b60405180910390207f1da1181a0b1114a9fa4cd6a0a1db7c36b311634bbdb640322290c3cfc52139d560405160405180910390a35050565b6000600180549050905090565b6001818154811061083057600080fd5b90600052602060002001600091509050805461084b90611b7b565b80601f016020809104026020016040519081016040528092919081815260200182805461087790611b7b565b80156108c45780601f10610899576101008083540402835291602001916108c4565b820191906000526020600020905b8154815290600101906020018083116108a757829003601f168201915b505050505081565b60608060608060608060608060008060008b6040516108eb9190611be8565b9081526020016040518091039020600a0160149054906101000a900460ff16610949576040517f08c379a000000000000000000000000000000000000000000000000000000000815260040161094090611c4b565b60405180910390fd5b6000808c60405161095a9190611be8565b908152602001604051809103902090508060010181600201826003018360040184600501856006018660070187600801886009015489600a0160009054906101000a900473ffffffffffffffffffffffffffffffffffffffff168980546109c090611b7b565b80601f01602080910402602001604051908101604052809291908181526020018280546109ec90611b7b565b8015610a395780601f10610a0e57610100808354040283529160200191610a39565b820191906000526020600020905b815481529060010190602001808311610a1c57829003601f168201915b50505050509950888054610a4c90611b7b565b80601f0160208091040260200160405190810160405280929190818152602001828054610a7890611b7b565b8015610ac55780601f10610a9a57610100808354040283529160200191610ac5565b820191906000526020600020905b815481529060010190602001808311610aa857829003601f168201915b50505050509850878054610ad890611b7b565b80601f0160208091040260200160405190810160405280929190818152602001828054610b0490611b7b565b8015610b515780601f10610b2657610100808354040283529160200191610b51565b820191906000526020600020905b815481529060010190602001808311610b3457829003601f168201915b50505050509750868054610b6490611b7b565b80601f0160208091040260200160405190810160405280929190818152602001828054610b9090611b7b565b8015610bdd5780601f10610bb257610100808354040283529160200191610bdd565b820191906000526020600020905b815481529060010190602001808311610bc057829003601f168201915b50505050509650858054610bf090611b7b565b80601f0160208091040260200160405190810160405280929190818152602001828054610c1c90611b7b565b8015610c695780601f10610c3e57610100808354040283529160200191610c69565b820191906000526020600020905b815481529060010190602001808311610c4c57829003601f168201915b50505050509550848054610c7c90611b7b565b80601f0160208091040260200160405190810160405280929190818152602001828054610ca890611b7b565b8015610cf55780601f10610cca57610100808354040283529160200191610cf5565b820191906000526020600020905b815481529060010190602001808311610cd857829003601f168201915b50505050509450838054610d0890611b7b565b80601f0160208091040260200160405190810160405280929190818152602001828054610d3490611b7b565b8015610d815780601f10610d5657610100808354040283529160200191610d81565b820191906000526020600020905b815481529060010190602001808311610d6457829003601f168201915b5050505050935082805480602002602001604051908101604052809291908181526020016000905b82821015610e55578382906000526020600020018054610dc890611b7b565b80601f0160208091040260200160405190810160405280929190818152602001828054610df490611b7b565b8015610e415780601f10610e1657610100808354040283529160200191610e41565b820191906000526020600020905b815481529060010190602001808311610e2457829003601f168201915b505050505081526020019060010190610da9565b5050505092509a509a509a509a509a509a509a509a509a509a50509193959799509193959799565b600089604051610e8d9190611be8565b9081526020016040518091039020600a0160149054906101000a900460ff1615610eec576040517f08c379a0000000000000000000000000000000000000000000000000000000008152600401610ee390611d23565b60405180910390fd5b6040518061018001604052808a81526020018981526020018881526020018781526020018681526020018581526020018481526020018381526020018281526020014281526020013373ffffffffffffffffffffffffffffffffffffffff1681526020016001151581525060008a604051610f679190611be8565b90815260200160405180910390206000820151816000019081610f8a9190611eef565b506020820151816001019081610fa09190611eef565b506040820151816002019081610fb69190611eef565b506060820151816003019081610fcc9190611eef565b506080820151816004019081610fe29190611eef565b5060a0820151816005019081610ff89190611eef565b5060c082015181600601908161100e9190611eef565b5060e08201518160070190816110249190611eef565b5061010082015181600801908051906020019061104292919061115e565b50610120820151816009015561014082015181600a0160006101000a81548173ffffffffffffffffffffffffffffffffffffffff021916908373ffffffffffffffffffffffffffffffffffffffff16021790555061016082015181600a0160146101000a81548160ff0219169083151502179055509050506001899080600181540180825580915050600190039060005260206000200160009091909190915090816110ee9190611eef565b503373ffffffffffffffffffffffffffffffffffffffff16896040516111149190611be8565b60405180910390207fe187ef62f610f162883fdada619504c09c0981be2dc09fbc1029e7a09db45a938a60405161114b9190611784565b60405180910390a3505050505050505050565b8280548282559060005260206000209081019282156111a6579160200282015b828111156111a55782518290816111959190611eef565b509160200191906001019061117e565b5b5090506111b391906111b7565b5090565b5b808211156111d757600081816111ce91906111db565b506001016111b8565b5090565b5080546111e790611b7b565b6000825580601f106111f95750611218565b601f016020900490600052602060002090810190611217919061121b565b5b50565b5b8082111561123457600081600090555060010161121c565b5090565b6000604051905090565b600080fd5b600080fd5b600080fd5b600080fd5b6000601f19601f8301169050919050565b7f4e487b7100000000000000000000000000000000000000000000000000000000600052604160045260246000fd5b61129f82611256565b810181811067ffffffffffffffff821117156112be576112bd611267565b5b80604052505050565b60006112d1611238565b90506112dd8282611296565b919050565b600067ffffffffffffffff8211156112fd576112fc611267565b5b61130682611256565b9050602081019050919050565b82818337600083830152505050565b6000611335611330846112e2565b6112c7565b90508281526020810184848401111561135157611350611251565b5b61135c848285611313565b509392505050565b600082601f8301126113795761137861124c565b5b8135611389848260208601611322565b91505092915050565b6000602082840312156113a8576113a7611242565b5b600082013567ffffffffffffffff8111156113c6576113c5611247565b5b6113d284828501611364565b91505092915050565b600081519050919050565b600082825260208201905092915050565b60005b838110156114155780820151818401526020810190506113fa565b60008484015250505050565b600061142c826113db565b61143681856113e6565b93506114468185602086016113f7565b61144f81611256565b840191505092915050565b6000819050919050565b61146d8161145a565b82525050565b600073ffffffffffffffffffffffffffffffffffffffff82169050919050565b600061149e82611473565b9050919050565b6114ae81611493565b82525050565b60008115159050919050565b6114c9816114b4565b82525050565b60006101608201905081810360008301526114ea818e611421565b905081810360208301526114fe818d611421565b90508181036040830152611512818c611421565b90508181036060830152611526818b611421565b9050818103608083015261153a818a611421565b905081810360a083015261154e8189611421565b905081810360c08301526115628188611421565b905081810360e08301526115768187611421565b9050611586610100830186611464565b6115946101208301856114a5565b6115a26101408301846114c0565b9c9b505050505050505050505050565b600067ffffffffffffffff8211156115cd576115cc611267565b5b602082029050602081019050919050565b600080fd5b60006115f66115f1846115b2565b6112c7565b90508083825260208201905060208402830185811115611619576116186115de565b5b835b8181101561166057803567ffffffffffffffff81111561163e5761163d61124c565b5b80860161164b8982611364565b8552602085019450505060208101905061161b565b5050509392505050565b600082601f83011261167f5761167e61124c565b5b813561168f8482602086016115e3565b91505092915050565b600080604083850312156116af576116ae611242565b5b600083013567ffffffffffffffff8111156116cd576116cc611247565b5b6116d985828601611364565b925050602083013567ffffffffffffffff8111156116fa576116f9611247565b5b6117068582860161166a565b9150509250929050565b60006020820190506117256000830184611464565b92915050565b6117348161145a565b811461173f57600080fd5b50565b6000813590506117518161172b565b92915050565b60006020828403121561176d5761176c611242565b5b600061177b84828501611742565b91505092915050565b6000602082019050818103600083015261179e8184611421565b905092915050565b600081519050919050565b600082825260208201905092915050565b6000819050602082019050919050565b600082825260208201905092915050565b60006117ee826113db565b6117f881856117d2565b93506118088185602086016113f7565b61181181611256565b840191505092915050565b600061182883836117e3565b905092915050565b6000602082019050919050565b6000611848826117a6565b61185281856117b1565b935083602082028501611864856117c2565b8060005b858110156118a05784840389528151611881858261181c565b945061188c83611830565b925060208a01995050600181019050611868565b50829750879550505050505092915050565b60006101408201905081810360008301526118cd818d611421565b905081810360208301526118e1818c611421565b905081810360408301526118f5818b611421565b90508181036060830152611909818a611421565b9050818103608083015261191d8189611421565b905081810360a08301526119318188611421565b905081810360c08301526119458187611421565b905081810360e0830152611959818661183d565b9050611969610100830185611464565b6119776101208301846114a5565b9b9a5050505050505050505050565b60008060008060008060008060006101208a8c0312156119a9576119a8611242565b5b60008a013567ffffffffffffffff8111156119c7576119c6611247565b5b6119d38c828d01611364565b99505060208a013567ffffffffffffffff8111156119f4576119f3611247565b5b611a008c828d01611364565b98505060408a013567ffffffffffffffff811115611a2157611a20611247565b5b611a2d8c828d01611364565b97505060608a013567ffffffffffffffff811115611a4e57611a4d611247565b5b611a5a8c828d01611364565b96505060808a013567ffffffffffffffff811115611a7b57611a7a611247565b5b611a878c828d01611364565b95505060a08a013567ffffffffffffffff811115611aa857611aa7611247565b5b611ab48c828d01611364565b94505060c08a013567ffffffffffffffff811115611ad557611ad4611247565b5b611ae18c828d01611364565b93505060e08a013567ffffffffffffffff811115611b0257611b01611247565b5b611b0e8c828d01611364565b9250506101008a013567ffffffffffffffff811115611b3057611b2f611247565b5b611b3c8c828d0161166a565b9150509295985092959850929598565b7f4e487b7100000000000000000000000000000000000000000000000000000000600052602260045260246000fd5b60006002820490506001821680611b9357607f821691505b602082108103611ba657611ba5611b4c565b5b50919050565b600081905092915050565b6000611bc2826113db565b611bcc8185611bac565b9350611bdc8185602086016113f7565b80840191505092915050565b6000611bf48284611bb7565b915081905092915050565b7f4261746368206e6f7420666f756e640000000000000000000000000000000000600082015250565b6000611c35600f836113e6565b9150611c4082611bff565b602082019050919050565b60006020820190508181036000830152611c6481611c28565b9050919050565b7f4f6e6c79206d616e7566616374757265722063616e2075706461746500000000600082015250565b6000611ca1601c836113e6565b9150611cac82611c6b565b602082019050919050565b60006020820190508181036000830152611cd081611c94565b9050919050565b7f426174636820616c726561647920726567697374657265640000000000000000600082015250565b6000611d0d6018836113e6565b9150611d1882611cd7565b602082019050919050565b60006020820190508181036000830152611d3c81611d00565b9050919050565b60008190508160005260206000209050919050565b60006020601f8301049050919050565b600082821b905092915050565b600060088302611da57fffffffffffffffffffffffffffffffffffffffffffffffffffffffffffffffff82611d68565b611daf8683611d68565b95508019841693508086168417925050509392505050565b6000819050919050565b6000611dec611de7611de28461145a565b611dc7565b61145a565b9050919050565b6000819050919050565b611e0683611dd1565b611e1a611e1282611df3565b848454611d75565b825550505050565b600090565b611e2f611e22565b611e3a818484611dfd565b505050565b5b81811015611e5e57611e53600082611e27565b600181019050611e40565b5050565b601f821115611ea357611e7481611d43565b611e7d84611d58565b81016020851015611e8c578190505b611ea0611e9885611d58565b830182611e3f565b50505b505050565b600082821c905092915050565b6000611ec660001984600802611ea8565b1980831691505092915050565b6000611edf8383611eb5565b9150826002028217905092915050565b611ef8826113db565b67ffffffffffffffff811115611f1157611f10611267565b5b611f1b8254611b7b565b611f26828285611e62565b600060209050601f831160018114611f595760008415611f47578287015190505b611f518582611ed3565b865550611fb9565b601f198416611f6786611d43565b60005b82811015611f8f57848901518255600182019150602085019450602081019050611f6a565b86831015611fac5784890151611fa8601f891682611eb5565b8355505b6001600288020188555050505b50505050505056fea26469706673582212208ffe6607b70fc9e5e6fc827221372aa38ece7c513318e5f95dda4e6e764b8a9764736f6c63430008140033",
  "linkReferences": {},
  "deployedLinkReferences": {}
}